{
  "_format": "hh-sol-artifact-1",
  "contractName": "BibsSolmate721",
  "sourceName": "contracts/Solmate/BibsSolmate721.sol",
  "abi": [
    {
      "inputs": [
        {
          "internalType": "string",
          "name": "_baseURI",
          "type": "string"
        }
      ],
      "stateMutability": "nonpayable",
      "type": "constructor"
    },
    {
      "anonymous": false,
      "inputs": [
        {
          "indexed": true,
          "internalType": "address",
          "name": "owner",
          "type": "address"
        },
        {
          "indexed": true,
          "internalType": "address",
          "name": "spender",
          "type": "address"
        },
        {
          "indexed": true,
          "internalType": "uint256",
          "name": "id",
          "type": "uint256"
        }
      ],
      "name": "Approval",
      "type": "event"
    },
    {
      "anonymous": false,
      "inputs": [
        {
          "indexed": true,
          "internalType": "address",
          "name": "owner",
          "type": "address"
        },
        {
          "indexed": true,
          "internalType": "address",
          "name": "operator",
          "type": "address"
        },
        {
          "indexed": false,
          "internalType": "bool",
          "name": "approved",
          "type": "bool"
        }
      ],
      "name": "ApprovalForAll",
      "type": "event"
    },
    {
      "anonymous": false,
      "inputs": [
        {
          "indexed": false,
          "internalType": "uint256",
          "name": "tokenId",
          "type": "uint256"
        },
        {
          "indexed": false,
          "internalType": "uint256",
          "name": "limit",
          "type": "uint256"
        },
        {
          "indexed": false,
          "internalType": "uint16",
          "name": "salePrice",
          "type": "uint16"
        }
      ],
      "name": "InitializedMint",
      "type": "event"
    },
    {
      "anonymous": false,
      "inputs": [
        {
          "indexed": true,
          "internalType": "address",
          "name": "previousOwner",
          "type": "address"
        },
        {
          "indexed": true,
          "internalType": "address",
          "name": "newOwner",
          "type": "address"
        }
      ],
      "name": "OwnershipTransferred",
      "type": "event"
    },
    {
      "anonymous": false,
      "inputs": [
        {
          "indexed": false,
          "internalType": "bool",
          "name": "notPaused",
          "type": "bool"
        }
      ],
      "name": "PauseUpdated",
      "type": "event"
    },
    {
      "anonymous": false,
      "inputs": [
        {
          "indexed": false,
          "internalType": "uint16",
          "name": "salePrice",
          "type": "uint16"
        }
      ],
      "name": "PriceUpdated",
      "type": "event"
    },
    {
      "anonymous": false,
      "inputs": [
        {
          "indexed": true,
          "internalType": "address",
          "name": "from",
          "type": "address"
        },
        {
          "indexed": true,
          "internalType": "address",
          "name": "to",
          "type": "address"
        },
        {
          "indexed": true,
          "internalType": "uint256",
          "name": "id",
          "type": "uint256"
        }
      ],
      "name": "Transfer",
      "type": "event"
    },
    {
      "inputs": [
        {
          "internalType": "address",
          "name": "spender",
          "type": "address"
        },
        {
          "internalType": "uint256",
          "name": "id",
          "type": "uint256"
        }
      ],
      "name": "approve",
      "outputs": [],
      "stateMutability": "nonpayable",
      "type": "function"
    },
    {
      "inputs": [
        {
          "internalType": "address",
          "name": "owner",
          "type": "address"
        }
      ],
      "name": "balanceOf",
      "outputs": [
        {
          "internalType": "uint256",
          "name": "",
          "type": "uint256"
        }
      ],
      "stateMutability": "view",
      "type": "function"
    },
    {
      "inputs": [],
      "name": "baseURI",
      "outputs": [
        {
          "internalType": "string",
          "name": "",
          "type": "string"
        }
      ],
      "stateMutability": "view",
      "type": "function"
    },
    {
      "inputs": [
        {
          "internalType": "uint256",
          "name": "",
          "type": "uint256"
        }
      ],
      "name": "getApproved",
      "outputs": [
        {
          "internalType": "address",
          "name": "",
          "type": "address"
        }
      ],
      "stateMutability": "view",
      "type": "function"
    },
    {
      "inputs": [],
      "name": "getLatestPrice",
      "outputs": [
        {
          "internalType": "int256",
          "name": "",
          "type": "int256"
        }
      ],
      "stateMutability": "view",
      "type": "function"
    },
    {
      "inputs": [
        {
          "internalType": "address",
          "name": "_to",
          "type": "address"
        },
        {
          "internalType": "uint16",
          "name": "_amount",
          "type": "uint16"
        }
      ],
      "name": "gift",
      "outputs": [],
      "stateMutability": "nonpayable",
      "type": "function"
    },
    {
      "inputs": [
        {
          "internalType": "uint256",
          "name": "_nextNFT",
          "type": "uint256"
        },
        {
          "internalType": "uint256",
          "name": "_limit",
          "type": "uint256"
        },
        {
          "internalType": "uint16",
          "name": "_salePrice",
          "type": "uint16"
        }
      ],
      "name": "initMint",
      "outputs": [],
      "stateMutability": "nonpayable",
      "type": "function"
    },
    {
      "inputs": [
        {
          "internalType": "address",
          "name": "",
          "type": "address"
        },
        {
          "internalType": "address",
          "name": "",
          "type": "address"
        }
      ],
      "name": "isApprovedForAll",
      "outputs": [
        {
          "internalType": "bool",
          "name": "",
          "type": "bool"
        }
      ],
      "stateMutability": "view",
      "type": "function"
    },
    {
      "inputs": [],
      "name": "limitNFT",
      "outputs": [
        {
          "internalType": "uint256",
          "name": "",
          "type": "uint256"
        }
      ],
      "stateMutability": "view",
      "type": "function"
    },
    {
      "inputs": [
        {
          "internalType": "uint16",
          "name": "_amount",
          "type": "uint16"
        }
      ],
      "name": "mintSale",
      "outputs": [],
      "stateMutability": "payable",
      "type": "function"
    },
    {
      "inputs": [
        {
          "internalType": "uint16",
          "name": "_amount",
          "type": "uint16"
        }
      ],
      "name": "mintSaleUSDT",
      "outputs": [],
      "stateMutability": "payable",
      "type": "function"
    },
    {
      "inputs": [],
      "name": "name",
      "outputs": [
        {
          "internalType": "string",
          "name": "",
          "type": "string"
        }
      ],
      "stateMutability": "view",
      "type": "function"
    },
    {
      "inputs": [],
      "name": "nextNFT",
      "outputs": [
        {
          "internalType": "uint256",
          "name": "",
          "type": "uint256"
        }
      ],
      "stateMutability": "view",
      "type": "function"
    },
    {
      "inputs": [],
      "name": "notPaused",
      "outputs": [
        {
          "internalType": "bool",
          "name": "",
          "type": "bool"
        }
      ],
      "stateMutability": "view",
      "type": "function"
    },
    {
      "inputs": [],
      "name": "owner",
      "outputs": [
        {
          "internalType": "address",
          "name": "",
          "type": "address"
        }
      ],
      "stateMutability": "view",
      "type": "function"
    },
    {
      "inputs": [
        {
          "internalType": "uint256",
          "name": "id",
          "type": "uint256"
        }
      ],
      "name": "ownerOf",
      "outputs": [
        {
          "internalType": "address",
          "name": "owner",
          "type": "address"
        }
      ],
      "stateMutability": "view",
      "type": "function"
    },
    {
      "inputs": [],
      "name": "renounceOwnership",
      "outputs": [],
      "stateMutability": "nonpayable",
      "type": "function"
    },
    {
      "inputs": [
        {
          "internalType": "address",
          "name": "from",
          "type": "address"
        },
        {
          "internalType": "address",
          "name": "to",
          "type": "address"
        },
        {
          "internalType": "uint256",
          "name": "id",
          "type": "uint256"
        }
      ],
      "name": "safeTransferFrom",
      "outputs": [],
      "stateMutability": "nonpayable",
      "type": "function"
    },
    {
      "inputs": [
        {
          "internalType": "address",
          "name": "from",
          "type": "address"
        },
        {
          "internalType": "address",
          "name": "to",
          "type": "address"
        },
        {
          "internalType": "uint256",
          "name": "id",
          "type": "uint256"
        },
        {
          "internalType": "bytes",
          "name": "data",
          "type": "bytes"
        }
      ],
      "name": "safeTransferFrom",
      "outputs": [],
      "stateMutability": "nonpayable",
      "type": "function"
    },
    {
      "inputs": [],
      "name": "salePrice",
      "outputs": [
        {
          "internalType": "uint16",
          "name": "",
          "type": "uint16"
        }
      ],
      "stateMutability": "view",
      "type": "function"
    },
    {
      "inputs": [
        {
          "internalType": "address",
          "name": "operator",
          "type": "address"
        },
        {
          "internalType": "bool",
          "name": "approved",
          "type": "bool"
        }
      ],
      "name": "setApprovalForAll",
      "outputs": [],
      "stateMutability": "nonpayable",
      "type": "function"
    },
    {
      "inputs": [
        {
          "internalType": "string",
          "name": "_newBaseURI",
          "type": "string"
        }
      ],
      "name": "setBaseUri",
      "outputs": [],
      "stateMutability": "nonpayable",
      "type": "function"
    },
    {
      "inputs": [],
      "name": "setPause",
      "outputs": [],
      "stateMutability": "nonpayable",
      "type": "function"
    },
    {
      "inputs": [
        {
          "internalType": "uint16",
          "name": "_newPrice",
          "type": "uint16"
        }
      ],
      "name": "setSalePrice",
      "outputs": [],
      "stateMutability": "nonpayable",
      "type": "function"
    },
    {
      "inputs": [
        {
          "internalType": "bytes4",
          "name": "interfaceId",
          "type": "bytes4"
        }
      ],
      "name": "supportsInterface",
      "outputs": [
        {
          "internalType": "bool",
          "name": "",
          "type": "bool"
        }
      ],
      "stateMutability": "view",
      "type": "function"
    },
    {
      "inputs": [],
      "name": "symbol",
      "outputs": [
        {
          "internalType": "string",
          "name": "",
          "type": "string"
        }
      ],
      "stateMutability": "view",
      "type": "function"
    },
    {
      "inputs": [
        {
          "internalType": "uint256",
          "name": "_tokenId",
          "type": "uint256"
        }
      ],
      "name": "tokenURI",
      "outputs": [
        {
          "internalType": "string",
          "name": "",
          "type": "string"
        }
      ],
      "stateMutability": "view",
      "type": "function"
    },
    {
      "inputs": [
        {
          "internalType": "address",
          "name": "from",
          "type": "address"
        },
        {
          "internalType": "address",
          "name": "to",
          "type": "address"
        },
        {
          "internalType": "uint256",
          "name": "id",
          "type": "uint256"
        }
      ],
      "name": "transferFrom",
      "outputs": [],
      "stateMutability": "nonpayable",
      "type": "function"
    },
    {
      "inputs": [
        {
          "internalType": "address",
          "name": "newOwner",
          "type": "address"
        }
      ],
      "name": "transferOwnership",
      "outputs": [],
      "stateMutability": "nonpayable",
      "type": "function"
    }
  ],
  "bytecode": "0x6080604052600880546001600160a01b0319167355d398326f99059ff775485246999027b319795517905560098054756400d0d5e3db44de05e9f294bb0a3beeaf030de24ada600162ffff0160a01b0319909116179055607d600b553480156200006857600080fd5b5060405162002424380380620024248339810160408190526200008b9162000229565b604080518082018252600a815269536f6c6d61746537323160b01b602080830191825283518085019094526003845262534d4560e81b908401528151919291620000d89160009162000183565b508051620000ee90600190602084019062000183565b5050506200010b620001056200012d60201b60201c565b62000131565b600160075580516200012590600c90602084019062000183565b505062000358565b3390565b600680546001600160a01b038381166001600160a01b0319831681179093556040519116919082907f8be0079c531659141344cd1fd0a4f28419497f9722a3daafe3b4186f6b6457e090600090a35050565b828054620001919062000305565b90600052602060002090601f016020900481019282620001b5576000855562000200565b82601f10620001d057805160ff191683800117855562000200565b8280016001018555821562000200579182015b8281111562000200578251825591602001919060010190620001e3565b506200020e92915062000212565b5090565b5b808211156200020e576000815560010162000213565b600060208083850312156200023d57600080fd5b82516001600160401b03808211156200025557600080fd5b818501915085601f8301126200026a57600080fd5b8151818111156200027f576200027f62000342565b604051601f8201601f19908116603f01168101908382118183101715620002aa57620002aa62000342565b816040528281528886848701011115620002c357600080fd5b600093505b82841015620002e75784840186015181850187015292850192620002c8565b82841115620002f95760008684830101525b98975050505050505050565b600181811c908216806200031a57607f821691505b602082108114156200033c57634e487b7160e01b600052602260045260246000fd5b50919050565b634e487b7160e01b600052604160045260246000fd5b6120bc80620003686000396000f3fe6080604052600436106101c25760003560e01c8063715018a6116100f7578063b88d4fde11610095578063e985e9c511610064578063e985e9c5146104d6578063f2fde38b14610511578063f51f96dd14610531578063fc55498a1461056657600080fd5b8063b88d4fde14610460578063c87b56dd14610480578063d431b1ac146104a0578063e05ca633146104b557600080fd5b806395d89b41116100d157806395d89b41146103f85780639907cc201461040d578063a0bcfc7f14610420578063a22cb4651461044057600080fd5b8063715018a6146103b05780638da5cb5b146103c55780638e15f473146103e357600080fd5b8063159294641161016457806342842e0e1161013e57806342842e0e1461033b5780636352211e1461035b5780636c0360eb1461037b57806370a082311461039057600080fd5b806315929464146102db57806323b872dd146102fb578063271491a71461031b57600080fd5b8063081812fc116101a0578063081812fc14610242578063095ea7b3146102905780630980b38b146102b25780630fbcb38e146102c557600080fd5b806301ffc9a7146101c757806306ce60ba146101fc57806306fdde0314610220575b600080fd5b3480156101d357600080fd5b506101e76101e2366004611c1b565b610586565b60405190151581526020015b60405180910390f35b34801561020857600080fd5b50610212600a5481565b6040519081526020016101f3565b34801561022c57600080fd5b506102356105d8565b6040516101f39190611e97565b34801561024e57600080fd5b5061027861025d366004611cb2565b6004602052600090815260409020546001600160a01b031681565b6040516001600160a01b0390911681526020016101f3565b34801561029c57600080fd5b506102b06102ab366004611bd4565b610666565b005b6102b06102c0366004611c97565b61074d565b3480156102d157600080fd5b50610212600b5481565b3480156102e757600080fd5b506102b06102f6366004611c97565b610820565b34801561030757600080fd5b506102b0610316366004611ac8565b61084a565b34801561032757600080fd5b506102b0610336366004611baa565b610a11565b34801561034757600080fd5b506102b0610356366004611ac8565b610a70565b34801561036757600080fd5b50610278610376366004611cb2565b610b72565b34801561038757600080fd5b50610235610bc9565b34801561039c57600080fd5b506102126103ab366004611a7a565b610bd6565b3480156103bc57600080fd5b506102b0610c39565b3480156103d157600080fd5b506006546001600160a01b0316610278565b3480156103ef57600080fd5b50610212610c4d565b34801561040457600080fd5b50610235610ce1565b6102b061041b366004611c97565b610cee565b34801561042c57600080fd5b506102b061043b366004611c55565b610e4c565b34801561044c57600080fd5b506102b061045b366004611b73565b610e60565b34801561046c57600080fd5b506102b061047b366004611b04565b610ecc565b34801561048c57600080fd5b5061023561049b366004611cb2565b610fc3565b3480156104ac57600080fd5b506102b0611073565b3480156104c157600080fd5b506009546101e790600160a01b900460ff1681565b3480156104e257600080fd5b506101e76104f1366004611a95565b600560209081526000928352604080842090915290825290205460ff1681565b34801561051d57600080fd5b506102b061052c366004611a7a565b61109c565b34801561053d57600080fd5b5060095461055390600160a81b900461ffff1681565b60405161ffff90911681526020016101f3565b34801561057257600080fd5b506102b0610581366004611ccb565b611115565b60006301ffc9a760e01b6001600160e01b0319831614806105b757506380ac58cd60e01b6001600160e01b03198316145b806105d25750635b5e139f60e01b6001600160e01b03198316145b92915050565b600080546105e590611f7e565b80601f016020809104026020016040519081016040528092919081815260200182805461061190611f7e565b801561065e5780601f106106335761010080835404028352916020019161065e565b820191906000526020600020905b81548152906001019060200180831161064157829003601f168201915b505050505081565b6000818152600260205260409020546001600160a01b0316338114806106af57506001600160a01b038116600090815260056020908152604080832033845290915290205460ff165b6106f15760405162461bcd60e51b815260206004820152600e60248201526d1393d517d055551213d49256915160921b60448201526064015b60405180910390fd5b60008281526004602052604080822080546001600160a01b0319166001600160a01b0387811691821790925591518593918516917f8c5be1e5ebec7d5bd14f71427d1e84f3dd0314c0f7b2291e5b200ac8c7c3b92591a4505050565b3233146107935760405162461bcd60e51b815260206004820152601460248201527310d85b1b195c881a5cc8184818dbdb9d1c9858dd60621b60448201526064016106e8565b60008161ffff16116107b75760405162461bcd60e51b81526004016106e890611eca565b6009546107ee906107d79061ffff600160a81b9091048116908416611f1c565b6107e990670de0b6b3a7640000611f1c565b61129f565b60005b8161ffff168161ffff16101561081c5761080a336112cb565b8061081481611fb9565b9150506107f1565b5050565b6108286113e3565b6009805461ffff909216600160a81b0261ffff60a81b19909216919091179055565b6000818152600260205260409020546001600160a01b038481169116146108a05760405162461bcd60e51b815260206004820152600a60248201526957524f4e475f46524f4d60b01b60448201526064016106e8565b6001600160a01b0382166108ea5760405162461bcd60e51b81526020600482015260116024820152701253959053125117d49150d25412515395607a1b60448201526064016106e8565b336001600160a01b038416148061092457506001600160a01b038316600090815260056020908152604080832033845290915290205460ff165b8061094557506000818152600460205260409020546001600160a01b031633145b6109825760405162461bcd60e51b815260206004820152600e60248201526d1393d517d055551213d49256915160921b60448201526064016106e8565b6001600160a01b0380841660008181526003602090815260408083208054600019019055938616808352848320805460010190558583526002825284832080546001600160a01b03199081168317909155600490925284832080549092169091559251849392917fddf252ad1be2c89b69c2b068fc378daa952ba7f163c4a11628f55a4df523b3ef91a4505050565b610a196113e3565b60008161ffff1611610a3d5760405162461bcd60e51b81526004016106e890611eca565b60005b8161ffff168161ffff161015610a6b57610a59836112cb565b80610a6381611fb9565b915050610a40565b505050565b610a7b83838361084a565b6001600160a01b0382163b1580610b335750604051630a85bd0160e11b8082523360048301526001600160a01b03858116602484015260448301849052608060648401526000608484015290919084169063150b7a029060a401602060405180830381600087803b158015610aef57600080fd5b505af1158015610b03573d6000803e3d6000fd5b505050506040513d601f19601f82011682018060405250810190610b279190611c38565b6001600160e01b031916145b610a6b5760405162461bcd60e51b815260206004820152601060248201526f155394d0519157d49150d2541251539560821b60448201526064016106e8565b6000818152600260205260409020546001600160a01b031680610bc45760405162461bcd60e51b815260206004820152600a6024820152691393d517d3525395115160b21b60448201526064016106e8565b919050565b600c80546105e590611f7e565b60006001600160a01b038216610c1d5760405162461bcd60e51b815260206004820152600c60248201526b5a45524f5f4144445245535360a01b60448201526064016106e8565b506001600160a01b031660009081526003602052604090205490565b610c416113e3565b610c4b600061143d565b565b600080600960009054906101000a90046001600160a01b03166001600160a01b031663feaf968c6040518163ffffffff1660e01b815260040160a06040518083038186803b158015610c9e57600080fd5b505afa158015610cb2573d6000803e3d6000fd5b505050506040513d601f19601f82011682018060405250810190610cd69190611d00565b509195945050505050565b600180546105e590611f7e565b323314610d345760405162461bcd60e51b815260206004820152601460248201527310d85b1b195c881a5cc8184818dbdb9d1c9858dd60621b60448201526064016106e8565b60008161ffff1611610d585760405162461bcd60e51b81526004016106e890611eca565b610d60610c4d565b600954610d7c9061ffff600160a81b9091048116908416611f1c565b610d91906a52b7d2dcc80cd2e4000000611f1c565b610d9b9190611f08565b341015610ddd5760405162461bcd60e51b815260206004820152601060248201526f4e6f7420656e6f7567682066756e647360801b60448201526064016106e8565b60405173d9453f5e2696604703076835496f81c3753c3bb3904780156108fc02916000818181858888f19350505050158015610e1d573d6000803e3d6000fd5b5060005b8161ffff168161ffff16101561081c57610e3a336112cb565b80610e4481611fb9565b915050610e21565b610e546113e3565b610a6b600c8383611955565b3360008181526005602090815260408083206001600160a01b03871680855290835292819020805460ff191686151590811790915590519081529192917f17307eab39ab6107e8899845ad3d59bd9653f200f220920489ca2b5937696c31910160405180910390a35050565b610ed785858561084a565b6001600160a01b0384163b1580610f7d5750604051630a85bd0160e11b808252906001600160a01b0386169063150b7a0290610f1f9033908a90899089908990600401611e43565b602060405180830381600087803b158015610f3957600080fd5b505af1158015610f4d573d6000803e3d6000fd5b505050506040513d601f19601f82011682018060405250810190610f719190611c38565b6001600160e01b031916145b610fbc5760405162461bcd60e51b815260206004820152601060248201526f155394d0519157d49150d2541251539560821b60448201526064016106e8565b5050505050565b6060600082118015610fd75750600b548211155b6110175760405162461bcd60e51b815260206004820152601160248201527013919508191bd95cdb89dd08195e1a5cdd607a1b60448201526064016106e8565b6000600c805461102690611f7e565b90501161104257604051806020016040528060008152506105d2565b600c61104d8361148f565b60405160200161105e929190611d88565b60405160208183030381529060405292915050565b61107b6113e3565b6009805460ff60a01b198116600160a01b9182900460ff1615909102179055565b6110a46113e3565b6001600160a01b0381166111095760405162461bcd60e51b815260206004820152602660248201527f4f776e61626c653a206e6577206f776e657220697320746865207a65726f206160448201526564647265737360d01b60648201526084016106e8565b6111128161143d565b50565b61111d6113e3565b600a548310156111835760405162461bcd60e51b815260206004820152602b60248201527f4e6577206e6578744e4654206d75737420626520686967686572207468616e2060448201526a746865206f6c64206f6e6560a81b60648201526084016106e8565b8282116111e45760405162461bcd60e51b815260206004820152602960248201527f4c696d6974206d75737420626520686967686572207468616e20746865206e656044820152681dc81b995e1d13919560ba1b60648201526084016106e8565b60008161ffff161161122e5760405162461bcd60e51b815260206004820152601360248201527250726963652063616e2774206265207a65726f60681b60448201526064016106e8565b600a839055600b8290556009805461ffff60a81b1916600160a81b61ffff8416908102919091179091556040805185815260208101859052908101919091527f3a8f360cf831d6c70c6e5a9421a2370d63ae6d750748d0c05229f8520e3803159060600160405180910390a1505050565b600854611112906001600160a01b03163373d9453f5e2696604703076835496f81c3753c3bb384611595565b6002600754141561131e5760405162461bcd60e51b815260206004820152601f60248201527f5265656e7472616e637947756172643a207265656e7472616e742063616c6c0060448201526064016106e8565b6002600755600954600160a01b900460ff1661137c5760405162461bcd60e51b815260206004820152601f60248201527f53616c6520756e617661696c61626c6520666f7220746865206d6f6d656e740060448201526064016106e8565b600b54600a54106113ba5760405162461bcd60e51b815260206004820152600860248201526714dbdb19081bdd5d60c21b60448201526064016106e8565b600a80549060006113ca83611fdb565b91905055506113db81600a546115f5565b506001600755565b6006546001600160a01b03163314610c4b5760405162461bcd60e51b815260206004820181905260248201527f4f776e61626c653a2063616c6c6572206973206e6f7420746865206f776e657260448201526064016106e8565b600680546001600160a01b038381166001600160a01b0319831681179093556040519116919082907f8be0079c531659141344cd1fd0a4f28419497f9722a3daafe3b4186f6b6457e090600090a35050565b6060816114b35750506040805180820190915260018152600360fc1b602082015290565b8160005b81156114dd57806114c781611fdb565b91506114d69050600a83611f08565b91506114b7565b60008167ffffffffffffffff8111156114f8576114f861204c565b6040519080825280601f01601f191660200182016040528015611522576020820181803683370190505b5090505b841561158d57611537600183611f3b565b9150611544600a86611ff6565b61154f906030611ef0565b60f81b81838151811061156457611564612036565b60200101906001600160f81b031916908160001a905350611586600a86611f08565b9450611526565b949350505050565b604080516001600160a01b0385811660248301528416604482015260648082018490528251808303909101815260849091019091526020810180516001600160e01b03166323b872dd60e01b1790526115ef908590611700565b50505050565b6001600160a01b03821661163f5760405162461bcd60e51b81526020600482015260116024820152701253959053125117d49150d25412515395607a1b60448201526064016106e8565b6000818152600260205260409020546001600160a01b0316156116955760405162461bcd60e51b815260206004820152600e60248201526d1053149150511657d3525395115160921b60448201526064016106e8565b6001600160a01b038216600081815260036020908152604080832080546001019055848352600290915280822080546001600160a01b0319168417905551839291907fddf252ad1be2c89b69c2b068fc378daa952ba7f163c4a11628f55a4df523b3ef908290a45050565b6000611755826040518060400160405280602081526020017f5361666545524332303a206c6f772d6c6576656c2063616c6c206661696c6564815250856001600160a01b03166117d29092919063ffffffff16565b805190915015610a6b57808060200190518101906117739190611bfe565b610a6b5760405162461bcd60e51b815260206004820152602a60248201527f5361666545524332303a204552433230206f7065726174696f6e20646964206e6044820152691bdd081cdd58d8d9595960b21b60648201526084016106e8565b60606117e184846000856117eb565b90505b9392505050565b60608247101561184c5760405162461bcd60e51b815260206004820152602660248201527f416464726573733a20696e73756666696369656e742062616c616e636520666f6044820152651c8818d85b1b60d21b60648201526084016106e8565b6001600160a01b0385163b6118a35760405162461bcd60e51b815260206004820152601d60248201527f416464726573733a2063616c6c20746f206e6f6e2d636f6e747261637400000060448201526064016106e8565b600080866001600160a01b031685876040516118bf9190611d6c565b60006040518083038185875af1925050503d80600081146118fc576040519150601f19603f3d011682016040523d82523d6000602084013e611901565b606091505b509150915061191182828661191c565b979650505050505050565b6060831561192b5750816117e4565b82511561193b5782518084602001fd5b8160405162461bcd60e51b81526004016106e89190611e97565b82805461196190611f7e565b90600052602060002090601f01602090048101928261198357600085556119c9565b82601f1061199c5782800160ff198235161785556119c9565b828001600101855582156119c9579182015b828111156119c95782358255916020019190600101906119ae565b506119d59291506119d9565b5090565b5b808211156119d557600081556001016119da565b80356001600160a01b0381168114610bc457600080fd5b60008083601f840112611a1757600080fd5b50813567ffffffffffffffff811115611a2f57600080fd5b602083019150836020828501011115611a4757600080fd5b9250929050565b803561ffff81168114610bc457600080fd5b805169ffffffffffffffffffff81168114610bc457600080fd5b600060208284031215611a8c57600080fd5b6117e4826119ee565b60008060408385031215611aa857600080fd5b611ab1836119ee565b9150611abf602084016119ee565b90509250929050565b600080600060608486031215611add57600080fd5b611ae6846119ee565b9250611af4602085016119ee565b9150604084013590509250925092565b600080600080600060808688031215611b1c57600080fd5b611b25866119ee565b9450611b33602087016119ee565b935060408601359250606086013567ffffffffffffffff811115611b5657600080fd5b611b6288828901611a05565b969995985093965092949392505050565b60008060408385031215611b8657600080fd5b611b8f836119ee565b91506020830135611b9f81612062565b809150509250929050565b60008060408385031215611bbd57600080fd5b611bc6836119ee565b9150611abf60208401611a4e565b60008060408385031215611be757600080fd5b611bf0836119ee565b946020939093013593505050565b600060208284031215611c1057600080fd5b81516117e481612062565b600060208284031215611c2d57600080fd5b81356117e481612070565b600060208284031215611c4a57600080fd5b81516117e481612070565b60008060208385031215611c6857600080fd5b823567ffffffffffffffff811115611c7f57600080fd5b611c8b85828601611a05565b90969095509350505050565b600060208284031215611ca957600080fd5b6117e482611a4e565b600060208284031215611cc457600080fd5b5035919050565b600080600060608486031215611ce057600080fd5b8335925060208401359150611cf760408501611a4e565b90509250925092565b600080600080600060a08688031215611d1857600080fd5b611d2186611a60565b9450602086015193506040860151925060608601519150611d4460808701611a60565b90509295509295909350565b60008151611d62818560208601611f52565b9290920192915050565b60008251611d7e818460208701611f52565b9190910192915050565b600080845481600182811c915080831680611da457607f831692505b6020808410821415611dc457634e487b7160e01b86526022600452602486fd5b818015611dd85760018114611de957611e16565b60ff19861689528489019650611e16565b60008b81526020902060005b86811015611e0e5781548b820152908501908301611df5565b505084890196505b505050505050611e3a611e298286611d50565b64173539b7b760d91b815260050190565b95945050505050565b6001600160a01b038681168252851660208201526040810184905260806060820181905281018290526000828460a0840137600060a0848401015260a0601f19601f85011683010190509695505050505050565b6020815260008251806020840152611eb6816040850160208701611f52565b601f01601f19169190910160400192915050565b6020808252600c908201526b416d6f756e74206d696e203160a01b604082015260600190565b60008219821115611f0357611f0361200a565b500190565b600082611f1757611f17612020565b500490565b6000816000190483118215151615611f3657611f3661200a565b500290565b600082821015611f4d57611f4d61200a565b500390565b60005b83811015611f6d578181015183820152602001611f55565b838111156115ef5750506000910152565b600181811c90821680611f9257607f821691505b60208210811415611fb357634e487b7160e01b600052602260045260246000fd5b50919050565b600061ffff80831681811415611fd157611fd161200a565b6001019392505050565b6000600019821415611fef57611fef61200a565b5060010190565b60008261200557612005612020565b500690565b634e487b7160e01b600052601160045260246000fd5b634e487b7160e01b600052601260045260246000fd5b634e487b7160e01b600052603260045260246000fd5b634e487b7160e01b600052604160045260246000fd5b801515811461111257600080fd5b6001600160e01b03198116811461111257600080fdfea2646970667358221220ce06cf78660c46ac7272cca636492284f6a58cdf4da9e1d4749b9b0355973ed064736f6c63430008070033",
  "linkReferences": {},
  "deployedLinkReferences": {}
}